:020000040800F2
:1000000088150020C1010008071C000841180008DD
:10001000051C0008DD03000837220008000000006E
:100020000000000000000000000000002B1C000881
:10003000B504000800000000291C00082D1C000861
:10004000DB010008DB010008DB010008DB01000820
:10005000DB010008DB010008DB010008DB01000810
:10006000DB010008DB010008DB010008E1030008F8
:10007000ED030008DB010008DB010008F9030008BC
:10008000DB010008DB010008DB010008DB010008E0
:10009000DB010008DB010008DB010008DB010008D0
:1000A000DB010008DB010008DB010008DB010008C0
:1000B000DB010008DB010008DB010008DB010008B0
:1000C000DB010008DB010008DB010008DB010008A0
:1000D000DB010008DB010008DB010008DB01000890
:1000E000DB010008DB010008DB010008DB01000880
:1000F000DB010008DB010008DB0100080504000843
:10010000DB010008DB010008DB010008DB0100085F
:10011000191D0008251D0008DB010008DB0100088F
:10012000DB010008DB010008DB010008DB0100083F
:10013000DB010008DB010008DB010008DB0100082F
:10014000DB010008DB010008DB010008DB0100081F
:10015000DB010008DB010008DB010008DB0100080F
:10016000DB010008DB010008DB010008DB010008FF
:10017000DB010008DB010008DB01000800000000D3
:10018000DB010008DB010008DB010008DB010008DF
:10019000DB010008DB010008DB010008DB010008CF
:1001A0000000000000000000DB010008DFF80CD0B8
:1001B00000F070F800480047592200088815002018
:1001C0000648804706480047FEE7FEE7FEE7FEE7F1
:1001D000FEE7FEE7FEE7FEE7FEE7FEE7C51C0008D8
:1001E000AD0100082DE9F05F0546002092469B46D0
:1001F00088460646814640241BE02846414647463D
:10020000224600F036F853465A46C01A914110D3A0
:1002100011461846224600F01DF82D1A67EB01081A
:100220004F4622460120002100F014F817EB000988
:100230004E41201EA4F10104DFDC484631462A4627
:100240004346BDE8F09F421C10F8011B0029FBD17A
:10025000801A7047202A04DB203A00FA02F10020BD
:1002600070479140C2F1200320FA03F319439040F4
:100270007047202A04DB203A21FA02F0002170475F
:1002800021FA02F3D040C2F12002914008431946FE
:1002900070470000064C074D06E0E06840F001039F
:1002A00094E8070098471034AC42F6D3FFF782FF7A
:1002B0005C2300087C230008454910B54A6822F4F5
:1002C00040324A604A6843681A434A6001684A6893
:1002D00022F480724A6001684A68036942EA032294
:1002E0004A6001684A6822F040724A6001684A68C0
:1002F00083681A434A6001688A6822F400628A604F
:1003000001688A68C3681A438A60816A6FF0706204
:10031000D14201688A6822F070628A6001688A6846
:100320000CD0836A1A438A6001688A6822F04052BE
:100330008A6001688A68C36A1A4301E022F0405269
:100340008A6001688A6822F002028A6001688A680D
:10035000836942EA43028A60016A002901684A68A7
:100360000FD042F400624A6001684A6822F4604299
:100370004A6001684A68174C436A04EB43331A43E6
:1003800001E022F400624A600168CA6A22F4700245
:10039000CA620168CA6A838B0F4C04EB03531A4389
:1003A000CA6201688A6822F400728A6001688A68F9
:1003B000036B42EA43228A6001688A6822F4806201
:1003C0008A6001688A68406942EA8020886010BDBE
:1003D0000023014000E0FFFF0000F0FFFEE7000007
:1003E000014800F071B9000008020020014800F047
:1003F0006BB9000028030020014800F065B9000037
:10040000C8020020014800F05FB900006802002027
:1004100001681823CAB2103AB2FBF3F2054B6FF32E
:100420000901032A9B5CC36500D9091D8165084643
:10043000704700003C23000810B5014600208B697E
:100440008A6A4FF0C07453B1B3F5005F15D072B132
:10045000012A0CD0022A0AD0032A09D104E01AB1D9
:10046000012A06D0022A03D1C96AC90100D5012098
:1004700010BDC96AA142FAD010BD002AF7D0012AE6
:10048000F2D0022AF3D0032AF3D010BD30B50468AD
:10049000256825F480252560046863608368402B07
:1004A000036803D099600068C26030BD9A6000683C
:1004B000C16030BD7047000078B50024009490F80A
:1004C0003C20012A19D0012280F83C200A68072329
:1004D0000568092A13D9EE680A3A02EB42029340F2
:1004E0009E43EE600A788B680A3A02EB4202934020
:1004F0000268D5682B43D36010E0022078BD2E69D6
:1005000002EB420293409E432E610A788B6802EB15
:1005100042029340026815692B4313614A681F2306
:10052000072A13D205686E6B521E02EB82029340BB
:100530009E436E630B790A885B1E92B203EB8303C2
:100540009A4003685D6B2A435A6327E005680D2AC9
:1005500012D22E6BD21F02EB820293409E432E6377
:100560000B790A88DB1F92B203EB83039A4003687E
:100570001D6B2A431A6311E0EE6A0D3A02EB820208
:1005800093409E43EE620B790A880D3B92B203EBD7
:1005900083039A400368DD6A2A43DA62174B0568D1
:1005A000154A9D4206D10D68122D03D1556845F4B8
:1005B0008005556005689D4219D1114D0B68AB420D
:1005C00001D0112B13D1536843F400035360096821
:1005D000A9420CD10B490C4A0968B1FBF2F101EBBD
:1005E0008101490000E0491E00910029FBD180F8FB
:1005F0003C40002078BD0000002301400020014065
:10060000120000101800002040420F0070B50400D6
:100610004FF0000503D0206C002610B107E0012048
:1006200070BD666484F83C60204600F019F8206CC8
:10063000C00610D4206C20F4885040F002002064E2
:100640002046FFF739FE6664206C20F0020040F07F
:100650000100206400E0012584F83C60284670BD5C
:1006600000B500680C4987B0884213D10B480021BF
:10067000026842F480620260006800F480600590C5
:100680004FF4C06000900320CDE9010169460448A1
:1006900000F0A2F907B000BD00220140443802403A
:1006A0000014024090F83510022903D080214165E2
:1006B00001207047052180F835100068016821F09D
:1006C00001010160002070472DE9F84304464FF016
:1006D0000009CDF8009063484FF41651A56D0068ED
:1006E000B0FBF1F72E6894F85C10082000FA01F1D5
:1006F00031420FD021680A6852070BD50A6822F0F0
:1007000004020A6094F85C108840A860606D40F0B4
:100710000100606594F85C104FF0010808FA01F0E0
:10072000304208D021684969090604D5A860606D87
:1007300040F00200606594F85C100420884030426C
:1007400008D021680968890704D5A860606D40F069
:100750000400606594F85C1010208840304218D086
:1007600021680968090714D5A86020680168490351
:1007700004D50068000308D5A16C07E00168C9052D
:1007800003D4016821F008010160216C09B1204601
:10079000884794F85C1020208840304231D021688E
:1007A0000968C9062DD5A86094F835000528206889
:1007B000016806D0490347D5006800031DD4616C69
:1007C0001CE021F0160101602068416921F08001E0
:1007D0004161206C08B9A06C20B12068016821F04B
:1007E0000801016094F85C103F208840A86084F8FC
:1007F000349084F83580216D1FE0E16B09B120460B
:100800008847606D00282BD0606DC00714D005208C
:1008100084F835002068016821F00101016000982A
:10082000401C0090B84203D820680068C007F6D189
:1008300084F8349084F83580E16C002910D001B040
:100840002046BDE8F04308470168C905D5D40168D2
:1008500021F01001016084F8349084F83580CCE7F1
:10086000BDE8F883180000202DE9F041044600F0AF
:100870009FF906465CB1002584F83450022084F8C4
:1008800035002068016821F0010101600DE00120C0
:10089000BDE8F08100F08CF9801B052805D92020E7
:1008A0006065032084F83500F2E720680068C0071F
:1008B000F0D12268116820480140D4E901031843AF
:1008C000D4E903363343184363691843A3691843D3
:1008D000E3691843236A18430843616A042903D172
:1008E000D4E90B1319430843106020684069666A15
:1008F00020F0070130460E43012704280CD1A06ADE
:100900000643E06A40B12046FFF796FD20B1402043
:10091000606584F83570BAE7206846612046FFF7C5
:1009200077FD94F85C203F2191408160656584F8F3
:1009300035700020ACE700003F8010F02DE9F04159
:100940000446866D90F83400002501280DD0012062
:1009500084F8340094F835700020012F07D084F813
:10096000340002252846BDE8F0810220FBE702277B
:1009700084F8357060652046FFF788FD94F85C10B8
:100980003F208840B0602068016841F01601016096
:100990002068416941F080014161206C20B12068EC
:1009A000016841F0080101602068016841F001011F
:1009B0000160D7E770B5044600F0FAF80546601C00
:1009C00002D004480078044400F0F2F8401BA04232
:1009D000FAD370BD0C0000202DE9F84FDFF890B17C
:1009E00000224FF001084FF0030A4FF00F090BF1FE
:1009F000040E00BF0B6808FA02F42340A3426ED134
:100A00004D68022D01D0122D0ED1D50800EB850CBA
:100A1000DCF820505607F70E09FA07F6B5430E69C1
:100A2000BE402E43CCF82060066855000F790AFAC4
:100A300005FC07F0030726EA0C06AF4037430760C2
:100A40004E68012E05D0022E03D0112E01D0122E99
:100A50000ED18768CE6827EA0C07AE403E43866019
:100A60004668A6430C79C4F30014944034434460B0
:100A7000C4688E6824EA0C04AE402643C6604C6805
:100A8000E4006FD53B4C256845F48045256024681B
:100A900022F0030504F480440094374C2E19D6F854
:100AA000084895072F0F09FA07F5AC43334DA842C4
:100AB00001D100252EE0324DA84201D1012529E0C7
:100AC000304DA84201D1022524E02F4DA84201D18A
:100AD00003251FE02D4DA84202D104251AE041E074
:100AE0002B4DA84201D1052514E02A4DA84201D181
:100AF00006250FE0284DA84201D107250AE0274D21
:100B0000A84201D1082505E0254DA84201D10925BB
:100B100000E00A25BD402543C6F80858DBF8004030
:100B20005D464E689C43F60300D51C432C60DEF8FE
:100B3000004075464E689C43B60300D51C432C60AC
:100B40000B4D08352C684E689C43F60200D51C43BB
:100B50002C60074D0C352C684E689C43B60200D5BE
:100B60001C432C60521C102AFFF444AFBDE8F88FE0
:100B7000003C014044380240003001400000024087
:100B80000004024000080240000C02400010024035
:100B90000014024000180240001C024000200240E5
:100BA000002402400AB1816170470904FBE700009C
:100BB00001488068704700000C00002002488168EE
:100BC00002781144816070470C0000200B4810B57A
:100BD000016841F400710160016841F480610160C5
:100BE000016841F480710160032000F097F8002053
:100BF00000F006F800F024F8002010BD003C024090
:100C000070B50D4D04464FF47A712878B1FBF0F0C1
:100C10000A490968B1FBF0F000F01DFB48B9102C3F
:100C200007D200222146501E00F058F800206C60C8
:100C300070BD012070BD00000C00002018000020D5
:100C40001F4808B5016841F480410160006800F464
:100C5000804000901A48001F016841F080510160F7
:100C6000006800F080500090032000F057F8002248
:100C700011466FF00B0000F031F8002211466FF0C2
:100C80000A0000F02BF8002211466FF0090000F076
:100C900025F800221146501F00F020F800221146CE
:100CA000101F00F01BF800221146901E00F016F8ED
:100CB0000022BDE808401146501E00F00FB80000A9
:100CC0004438024000F01F02012191404009800099
:100CD00000F1E020C0F8001170470000F0B40E4BA6
:100CE0001B680C46C3F30223C3F10705042D00D98A
:100CF0000425191D072901D2002300E0DB1E01266F
:100D000006FA05F1491E214099409E40761E164084
:100D10003143F0BC00F078BF0CED00E0064900F074
:100D2000070208684FF6FF03184040EA0220034A12
:100D300010430860704700000CED00E00000FA0569
:100D40002DE9F0470E46050065D0DFF81481D8F88C
:100D50000000F7B200F00F00B04207D288F8007030
:100D6000D8F8000000F00F00B04254D128683D4C84
:100D7000810712D5400703D5206840F4E050206079
:100D80002878000703D5206840F460402060206880
:100D9000A96820F0F000084320602878C0072DD013
:100DA000304968680839012812D0022813D0032876
:100DB00011D00968890700292DDA216821F0030183
:100DC00001432160FFF7F4FE814641F2883A0EE0CC
:100DD00009688903EFE709688901ECE7FFF7E8FE96
:100DE000A0EB0901514502D90320BDE8F087206836
:100DF000696800F00C00B0EB810FEFD1D8F800105B
:100E0000404601F00F01B14207D90770006800F0B9
:100E10000F00B04201D00120E7E72878400705D550
:100E20002068E96820F4E050084320602878000733
:100E300006D52068296920F4604040EAC10020609E
:100E400000F03CF82168084AC1F30311515CC84026
:100E5000064908600020FFF7D3FE0020C5E7000028
:100E6000003C0240083802404423000818000020DB
:100E70000148006870470000180000200448054938
:100E800000680968044AC1F38221515CC840704778
:100E9000180000200838024054230008044805497F
:100EA00000680968044AC1F34231515CC840704788
:100EB000180000200838024054230008154810B5D7
:100EC000006810F00C02144813D01449042A0FD003
:100ED000082A0ED10F4C241F2268236802F03F021B
:100EE0005B0207D52068C0F38810A0FB010106E073
:100EF000084610BD2168C1F38811A1FB0001002341
:100F0000FFF770F92168C1F30141491C4900B0FBAA
:100F1000F1F010BD083802400024F40000366E01E4
:100F20002DE9F84F050076D02878DFF8F8B2BE4CEE
:100F3000C00749D0DBF800105846C1F381010129F0
:100F400008D00068C0F3810002280AD1201D006883
:100F5000400206D52068800336D568680028E2D0B4
:100F600032E06868B0F5803F10D0B0F5A02F20685F
:100F700010D020F480302060206820F48020206091
:100F80006868A0B1FFF714FE06460CE0206840F444
:100F90008030F4E740F480202060F7E7FFF708FE98
:100FA000801B642873D820688003F7D50CE0FFF716
:100FB000FFFD064605E000BFFFF7FAFD801B642831
:100FC000F0D820688003F7D42878DFF860828007A3
:100FD0004FF000093ED5DBF80010584611F00C0F19
:100FE00009D00068C0F3810002280BD18D48001F92
:100FF0000068400206D42068800715D5E8680128FB
:1010000009D111E0E868B8B10120C8F80000FFF785
:10101000CFFD064605E002E1FFF7CAFD801B02286E
:10102000C0D820688007F7D52068296920F0F8002B
:1010300040EAC10020600DE0C8F80090FFF7B8FD5D
:10104000064604E0FFF7B4FD801B02281FD8206885
:101050008007F7D42878000722D5724E7448696952
:101060006C3671B101210160FFF7A2FD074604E073
:10107000FFF79EFDC01B022809D830688007F7D50E
:101080000EE0C0F80090FFF793FD074605E083E00F
:10109000FFF78EFDC01B02287ED830688007F7D48A
:1010A0002878400768D5DFF87CA100270AF1380AC4
:1010B000DAF80000C0000BD4DAF8001041F08051DB
:1010C000CAF80010DAF80000012700F08050009004
:1010D000584E3068C00510D4306840F480703060DD
:1010E000FFF766FD009005E0FFF762FD0099401AEA
:1010F000022851D83068C005F6D54A4EA86868362F
:1011000001280FD00528306810D020F00100306091
:10111000306820F004003060A868B8B1FFF748FDDF
:1011200000900FE0306840F00100F4E740F0040068
:101130003060F7E7FFF73CFD0099411A41F2883033
:10114000814264D830688007F4D50EE0FFF730FDA7
:10115000009007E0FFF72CFD0099411A41F288301A
:10116000814254D830688007F4D42FB1DAF80010E7
:1011700021F08051CAF80010A869C0B3DBF8001054
:10118000C1F3810102294AD00228484607D0C8F895
:101190006000FFF70DFD00E039E005463AE0474604
:1011A000C8F86000FFF704FD064604E0FFF700FD05
:1011B000801B02282BD820688001F7D4D5E90701CD
:1011C0000843A96A1C4A490802EB01416A6A41EADC
:1011D0008211084395F82C1040EA01611148001F64
:1011E000016001203866FFF7E3FC054605E014E0E6
:1011F000FFF7DEFC401B022809D820688001F7D5E4
:101200000BE000BFFFF7D4FC401B022802D90320EB
:10121000BDE8F88F20688001F4D40020F8E70120B1
:10122000F6E700000838024000380240000047425C
:10123000800E4742007000400000FFFF4FF0E021A9
:101240000428086903D020F004000861704740F0CA
:101250000400FAE7704710B5401EB0F1807F01D35B
:10126000012010BD4FF0E02460610F21601700F0F5
:10127000CBFC0020A06107202061002010BD10B52C
:10128000FFF7E8FF10BD704770B5026804461068AC
:10129000D168536910F00F0F50D003F0010501F42D
:1012A000907635435DD0C20705D0CA0503D5E26B01
:1012B00042F00102E263420705D5DA0703D0E26B90
:1012C00042F00202E263820705D5DA0703D0E26B3F
:1012D00042F00402E263020705D5DA0703D0E26BAD
:1012E00042F00802E263E26B002A33D0800604D5A4
:1012F000880602D5204600F09EFD20684069E16B1B
:10130000C0F38010090700D428B3204600F07CFD0C
:101310002068416949061AD5416921F040014161BF
:10132000606BA0B11B490165606BFFF7BBF900283A
:1013300010D0606B016DBDE870400847830610D582
:101340008B060ED52046BDE8704000F074BD2046E7
:10135000FFF799FF70BD2046FFF795FF0020E0637F
:1013600070BD030606D50B0604D52046BDE87040C7
:1013700000F0FEBE4006F3D54806F1D5D168204600
:1013800021F04001D160202184F8391000F056FA94
:1013900070BD0000311D000870B5040004D094F841
:1013A0003900002510B106E0012070BD84F83850E6
:1013B000204600F023F8242084F839002068C16812
:1013C00021F40051C160204600F07CFD20680169D5
:1013D00021F4904101612068416921F02A014161B5
:1013E0002068C16841F40051C160E563202084F8A1
:1013F000390084F83A00002070BD00002DE9F04F5C
:101400000446DFF818820368854803210227012675
:101410000822DFF810C2002587B0434517D10368C2
:1014200043F4002303600068029600F40020059056
:10143000CDE90017CDE9031269466046FFF7CCFA03
:10144000002211463420FFF749FC342061E0DFF828
:10145000D8814FF0006B4FF4806A43455ED103683A
:1014600043F4801303600068894600F480100590FF
:101470004FF48050CDE90007CDE9026990466946F6
:1014800004926A48FFF7A8FA0420CDE90007CDE9E5
:1014900002696946CDF810806548FFF79DFA664EEF
:1014A00064484FF480373060C6E901B5C6E9035A95
:1014B0007561B561C6E90757D946D04630467562B1
:1014C000FFF7D2F918B1DF215CA000F0B5FE66632A
:1014D000B463594E57486036A830E6E80209402008
:1014E000A6E82101544846F814596030B561C6E9B0
:1014F00007577562FFF7B8F918B1F1214FA000F056
:101500009BFE2663002211463520B463FFF7E6FBFD
:101510003520FFF7D7FB07B0BDE8F08FDFF82C814F
:10152000434510D1036843F080430360006802968E
:1015300000F080400590CDE90312C020CDE90007FE
:101540006946434817E0DFF80C810722434515D16F
:101550003348001D036843F01003036000680296DF
:1015600000F010000590CDE903124FF4C060CDE902
:10157000000769466046FFF72FFACCE7DFF8D8C0CE
:101580006345C8D1036843F4802303600068029672
:1015900000F480200590CDE903124FF44060CDE9BE
:1015A000000769462D48FFF717FA234E2148C03639
:1015B000603030604005706006F1080340205746F7
:1015C00083E8A10075614FF48038B561C6E907581A
:1015D00030467562FFF748F920B14FF4A67117A0A5
:1015E00000F02AFE2663B46312481D4E18303060A6
:1015F000C6E901B5C6E9035780157561C6E906500D
:10160000C6E908853046FFF72FF920B14FF4AF71D6
:101610000AA000F011FE6663B4637CE7004C004052
:1016200040380240000002400050004000080240E4
:10163000000C024010600240080200202E2E2F53A2
:1016400072632F75736172742E630000007800401E
:101650000014024000100140004800400004024015
:1016600028030020F8B5044690F83A0020283CD121
:10167000C1B3BAB394F83800012836D0012084F8F9
:101680003800A162A2850025E563222084F83A0093
:10169000636B1748D863636B16481864636B16480E
:1016A000D864606B134605650846666B2168024680
:1016B0003046091DFFF742F9206801684168009132
:1016C00084F83850C16841F48071C1602068416974
:1016D00041F0010141612068416941F040014161EF
:1016E0000020F8BDFFE70120FBE70220F9E700003A
:1016F0008B1D0008C71D0008411D0008704770477A
:101700002DE9F843044690F839001F4616460D4669
:10171000202850D1A5B19EB194F8380001284AD0B4
:10172000012084F838004FF00008C4F83C802120E4
:1017300084F83900FFF73CFAA6848146E68426E067
:101740000120BDE8F883E08C401EE084A0684B4691
:10175000B0F5805F4FF000024FF080012046009707
:1017600003D000F036FDE8B90DE000F032FDC8B955
:1017700028882168C0F308004860206908B16D1C02
:1017800005E0AD1C03E0216815F8010B4860E08C12
:101790000028D8D14B46002240212046009700F077
:1017A00018FD08B10320CCE7202084F8390084F824
:1017B00038800020C5E70220C3E7000070B504466A
:1017C00090F83900202830D169B362B394F838001A
:1017D00001282AD0012084F838002162A284E28402
:1017E0000025E563212084F83900236B1048D86375
:1017F000236B10481864236B0F48D864206B134682
:1018000005652668206B321DFFF798F821686FF098
:101810004000086084F838502068416941F0800138
:101820004161002070BD012070BD022070BD00002C
:10183000D11D0008FF1D0008411D000870477047BA
:10184000FEE700007FB5144812490024C0E90014E7
:1018500084600461846111490462C0E90A140125AD
:10186000C460C56145610463FEF7D0FE18B148212C
:101870000BA000F0E1FC0720CDE9000569460294C9
:101880000548FEF719FE002803D0522104A000F0FD
:10189000D3FC7FBD00220140800000200100000F2A
:1018A0002E2E2F5372632F6164632E63000000009D
:1018B000154808B5016841F4001101600068002274
:1018C00000F40010009011460B20FFF707FA0B20E0
:1018D000FFF7F8F9002211460C20FFF7FFF90C2062
:1018E000FFF7F0F9002211460F20FFF7F7F90F205C
:1018F000FFF7E8F9002211462F20FFF7EFF9BDE8C6
:1019000008402F20FFF7DEB9303802402DE9F04FB4
:10191000554887B00024016841F480710160016876
:1019200001F480710591016841F0040101600168D2
:1019300001F004010591016841F020010160016896
:1019400001F020010591016841F08001016001680A
:1019500001F080010591016841F001010160016819
:1019600001F001010591016841F002010160016887
:1019700001F002010591016841F008010160006871
:10198000DFF8E8A000F0080040F608750590002296
:1019900029465046FFF706F9DFF8D4B042F20206B6
:1019A000002231465846FFF7FDF8771100223946EC
:1019B0003048FFF7F7F800223C212F48FFF7F2F8F4
:1019C0004FF48878002241462C48FFF7EBF80022BC
:1019D00098212B48FFF7E6F84FF44079002249465A
:1019E0002848FFF7DFF800950125CDE90154694645
:1019F00050460394FEF7F0FF0096CDE90154694686
:101A000058460394FEF7E8FF0097CDE90154694674
:101A100018480394FEF7E0FF3C200090CDE9015404
:101A2000694615480394FEF7D7FFCDF80080CDE94D
:101A30000154694611480394FEF7CEFF98200090A8
:101A4000CDE9015469460E480394FEF7C5FFCDF871
:101A50000090CDE9015469460A480394FEF7BCFFA3
:101A600007B0BDE8F08F000030380240002002408F
:101A70000008024000140240001C02400000024026
:101A8000000C0240000402400D4810B50B490160F3
:101A90004FF4E1314160002181600C22C160C0E956
:101AA00004128161C161FFF777FC002805D0BDE811
:101AB00010404A2103A000F0BFBB10BD004C004005
:101AC000C80000202E2E2F5372632F75736172741D
:101AD0002E6300000D4810B50B4901604FF4E13151
:101AE0004160002181600C22C160C0E90412816163
:101AF000C161FFF751FC002805D0BDE810405C2112
:101B000003A000F099BB10BD005000400801002068
:101B10002E2E2F5372632F75736172742E63000023
:101B20000D4810B50B4901604FF4E13141600021CF
:101B300081600C22C160C0E904128161C161FFF7BC
:101B40002BFC002805D0BDE810406E2103A000F05A
:101B500073BB10BD00780040480100202E2E2F538B
:101B600072632F75736172742E6300000D4810B597
:101B70000B4901604FF4E1314160002181600C228A
:101B8000C160C0E904128161C161FFF705FC002852
:101B900005D0BDE81040812103A000F04DBB10BD71
:101BA00000100140880100202E2E2F5372632F75E4
:101BB000736172742E6300000D4810B50B4901600B
:101BC0004FF4E1314160002181600C22C160C0E925
:101BD00004128161C161FFF7DFFB002805D0BDE879
:101BE0001040942103A000F027BB10BD0048004026
:101BF000C80100202E2E2F5372632F7573617274EB
:101C00002E630000FEE770470907090E002806DA78
:101C100000F00F0000F1E02080F8141D704700F183
:101C2000E02080F8001470477047704710B5FEF749
:101C3000C5FFBDE81040FFF722BB000030B51F48CC
:101C400093B00024016841F080510160006800F009
:101C5000805011901A48016821F4404141F48041BC
:101C600001600068012500F44040119028040694AA
:101C7000CDE900506846FFF753F900B1FEE70F20A9
:101C80000C90CDE90D540F9400210CA81094FFF78F
:101C900057F800B1FEE7FFF7EBF84FF47A71B0FBAD
:101CA000F1F0FFF7D8FA0420FFF7C8FA0022114636
:101CB000501EFFF713F813B030BD0000403802404B
:101CC000007000401048016841F4700101600F4845
:101CD000016841F0010101600C4A002108321160E5
:101CE00002680B4B1A400260031D0A4A1A60026820
:101CF00022F48022026005480C3001600249580637
:101D0000803908607047000088ED00E0003802402C
:101D1000FFFFF6FE103000240148FFF7B5BA0000BF
:101D2000C80000200148FFF7AFBA000008010020FA
:101D300010B5806B0021C185C184FFF7A4FA10BDE6
:101D400070B5846B2068406994F83910C0F3C010F6
:101D50000025212904D118B1E584204600F062F85D
:101D60002068406994F83A10C0F38010222904D109
:101D700018B1E585204600F047F8E06B40F0100010
:101D8000E0632046FFF77FFA70BD10B50146806B17
:101D900009680968C90513D40021C1850168CA68AA
:101DA00022F48072CA6001684A6922F001024A6125
:101DB00001684A6922F040024A61202180F83A1005
:101DC000FFF79CFC10BD10B5806BFFF798FC10BDB1
:101DD00010B50146806B09680968C9050CD400215B
:101DE000C18401684A6922F080024A610068C168C2
:101DF00041F04001C16010BDFFF720FD10BD10B5DE
:101E0000806BFFF71CFD10BD0168CA6822F4907258
:101E1000CA6001684A6922F001024A61202180F803
:101E20003A1070470168CA6822F0C002CA602021D7
:101E300080F83910704710B590F83A10222901D077
:101E4000022010BD8168B1F5805F11D001690029C1
:101E500001681FD0496801F07F03816A4A1C8262D1
:101E60000B70C18D491E0904090CC18518D026E0EC
:101E70000269816A002A0268526805D0D2B20A80DB
:101E8000816A491C8162ECE7C2F308020A80816A18
:101E9000891CF7E74A68816A4B1C83620A70E0E795
:101EA0000168CA6822F49072CA6001684A6922F027
:101EB00001024A61202180F83A10FFF71FFC002040
:101EC00010BD00002DE9F04104460068016921F4CD
:101ED0004052E168114301612168C86849F20C620F
:101EE00090432369A268E5691A4363692B431A4347
:101EF0000243CA602168486920F44072A069104317
:101F00004861E1696425B1F5004F9748974A216817
:101F10004FF032083FD0914201D081427CD1FEF790
:101F2000BDFF00EBC00101EB001061688900B0FB50
:101F3000F1F6FEF7B3FF00EBC00101EB00106168A2
:101F40008900B0FBF1F0B0FBF5F06FF018014843E9
:101F500006EB800108EB0110B0FBF5F000F0F00695
:101F6000FEF79CFF00EBC00101EB001061688900E7
:101F7000B0FBF1F0B0FBF5F006EB0016FEF78EFFBC
:101F800000EBC00101EB001061688900B0FBF1F7C4
:101F9000FEF784FFD2E0914201D081423DD1FEF7AD
:101FA0007DFF00EBC00101EB001061684900B0FB50
:101FB000F1F0B0FBF5F00601FEF770FF00EBC00199
:101FC00001EB001061684900B0FBF1F7FEF766FF16
:101FD00000EBC00101EB001061684900B0FBF1F0BB
:101FE000B0FBF5F06FF01801484307EB800108EBF8
:101FF000C100B0FBF5F000F0F80006EB4006FEF77C
:102000004DFF00EBC00101EB001061684900B0FB1F
:10201000F1F7FEF743FF3CE055E0FEF72FFF00EB42
:10202000C00101EB001061684900B0FBF1F0B0FBAA
:10203000F5F00601FEF722FF00EBC00101EB0010F6
:1020400061684900B0FBF1F7FEF718FF00EBC00133
:1020500001EB001061684900B0FBF1F0B0FBF5F056
:102060006FF01801484307EB800108EBC100B0FB9B
:10207000F5F000F0F80006EB4006FEF7FFFE00EB7F
:10208000C00101EB001061684900B0FBF1F7FEF7F9
:10209000F5FE00EBC00101EB001061684900B0FBE8
:1020A000F1F0B0FBF5F06FF01801484307EB800149
:1020B00008EBC100B0FBF5F000F0070021683044E8
:1020C0008860BDE8F081FEF7D9FE00EBC00101EBAE
:1020D000001061688900B0FBF1F6FEF7CFFE00EB5F
:1020E000C00101EB001061688900B0FBF1F0B0FBAA
:1020F000F5F06FF01801484306EB800108EB011082
:10210000B0FBF5F000F0F006FEF7B8FE00EBC00102
:1021100001EB001061688900B0FBF1F0B0FBF5F055
:1021200006EB0016FEF7AAFE00EBC00101EB001063
:1021300061688900B0FBF1F7FEF7A0FE00EBC0017B
:1021400001EB001061688900B0FBF1F0B0FBF5F025
:102150006FF01801484307EB800108EB0110B0FB5A
:10216000F5F000F00F00A9E7001401400010014055
:1021700090F83910212901D0022070478168B1F50B
:10218000805F016A0BD04A1C0262026809785160C4
:10219000C18C491E0904090CC1840ED017E00988BE
:1021A0000268C1F30801516001690029016A02D087
:1021B000491C0162ECE7891CFBE70168CA6822F050
:1021C0008002CA600068C16841F04001C16000201F
:1021D00070472DE9F041984617460E460446069D85
:1021E0001DE0681C1BD02DB1FEF7E2FCA0EB08003F
:1021F000A84214D92068C16821F4D071C160206858
:10220000416921F001014161202084F8390084F8FE
:102210003A00002084F838000320BDE8F0812068EF
:10222000006836EA000004D00020B842D9D000206F
:10223000F3E70120F9E7FEE7FEE702E008C8121F16
:1022400008C1002AFAD170477047002001E001C19F
:10225000121F002AFBD170470EB5FEF7B7FCFFF73F
:10226000EDFCFFF753FBFFF723FBFFF7A5FCFFF7A0
:102270007DFCFFF709FCFFF7E5FAFFF72BFCFFF702
:102280004FFC234C012251022046FEF78BFC012219
:10229000150229462046FEF785FC1E4C0122082126
:1022A0002046FEF77FFC012210212046FEF77AFC33
:1022B000012280212046FEF775FC012208211648E4
:1022C000FEF770FC012229461448FEF76BFC14A2AD
:1022D00007CA8DE807006846FDF7B5FF82B20A23FA
:1022E00069461248FFF70CFA0A2211490F48FFF716
:1022F000B9F94FF448740F48FDF7A5FF82B20D49B4
:102300000D48FFF75BFA2046FEF754FBF3E70000A9
:1023100000040240000C0240002002400000024085
:10232000696E69742E2E2E0D0A000000C80100206F
:102330001C000020000000200801002000061016EC
:102340000006101600000000000000000102030457
:102350000607080900000000010203047C230008AE
:10236000000000201C0000003A220008982300080A
:102370001C0000206C1500004A22000868656C6C87
:102380006F2E2E2E0D0A000001000000100000002C
:08239000000000000024F4002D
:04000005080001AD41
:00000001FF
