:020000040800F2
:1000000088170020C1010008A3210008CD1C0008AA
:10001000A1210008090400081928000800000000B8
:10002000000000000000000000000000C7210008E0
:100030001105000800000000C5210008C9210008C2
:10004000DB010008DB010008DB010008DB01000820
:10005000DB010008DB010008DB010008DB01000810
:10006000DB010008DB010008DB0100080D040008CB
:100070001904000825040008310400083D040008A4
:10008000DB010008DB010008DB010008DB010008E0
:10009000DB010008DB010008DB010008DB010008D0
:1000A000DB010008DB010008DB010008DB010008C0
:1000B000DB010008DB010008DB010008DB010008B0
:1000C000DB010008DB010008DB010008DB010008A0
:1000D000DB010008F5270008DB0100080128000803
:1000E000DB010008DB010008DB010008DB01000880
:1000F000DB010008DB010008DB01000849040008FF
:10010000DB010008DB010008DB010008DB0100085F
:10011000D5220008E1220008DB010008DB0100080D
:10012000DB01000855040008DB010008DB010008C2
:10013000DB010008DB010008DB010008DB0100082F
:10014000DB010008DB010008DB010008DB0100081F
:10015000DB01000861040008DB0100080D2800082D
:10016000DB010008DB010008DB010008DB010008FF
:10017000DB010008DB010008DB01000800000000D3
:10018000DB010008DB010008DB010008DB010008DF
:10019000DB010008DB010008DB010008DB010008CF
:1001A0000000000000000000DB010008DFF80CD0B8
:1001B00000F086F800480047B12B0008881700209F
:1001C0000648804706480047FEE7FEE7FEE7FEE7F1
:1001D000FEE7FEE7FEE7FEE7FEE7FEE78122000816
:1001E000AD0100082DE9F05F0546002092469B46D0
:1001F00088460646814640241BE02846414647463D
:10020000224600F04CF853465A46C01A914110D38A
:1002100011461846224600F033F82D1A67EB010804
:100220004F4622460120002100F02AF817EB000972
:100230004E41201EA4F10104DFDC484631462A4627
:100240004346BDE8F09F421C10F8011B0029FBD17A
:10025000801A704730B50B46014600202022012449
:1002600009E021FA02F59D4205D303FA02F5491B84
:1002700004FA02F52844151EA2F10102F1DC30BD9A
:10028000202A04DB203A00FA02F100207047914056
:10029000C2F1200320FA03F3194390407047202A4B
:1002A00004DB203A21FA02F00021704721FA02F320
:1002B000D040C2F120029140084319467047000027
:1002C000064C074D06E0E06840F0010394E80700A3
:1002D00098471034AC42F6D3FFF76CFF9C2D000812
:1002E000BC2D0008454910B54A6822F440324A60E6
:1002F0004A6843681A434A6001684A6822F4807277
:100300004A6001684A68036942EA03224A60016858
:100310004A6822F040724A6001684A6883681A435A
:100320004A6001688A6822F400628A6001688A680B
:10033000C3681A438A60816A6FF07062D1420168B3
:100340008A6822F070628A6001688A680CD0836AC9
:100350001A438A6001688A6822F040528A60016804
:100360008A68C36A1A4301E022F040528A60016839
:100370008A6822F002028A6001688A68836942EA18
:1003800043028A60016A002901684A680FD042F47A
:1003900000624A6001684A6822F460424A6001686B
:1003A0004A68174C436A04EB43331A4301E022F4D2
:1003B00000624A600168CA6A22F47002CA62016877
:1003C000CA6A838B0F4C04EB03531A43CA62016859
:1003D0008A6822F400728A6001688A68036B42EAC4
:1003E00043228A6001688A6822F480628A60016818
:1003F0008A68406942EA8020886010BD002301407D
:1004000000E0FFFF0000F0FFFEE70000014800F001
:100410001BBA000048030020014800F015BA000094
:1004200068040020014800F00FBA00008802002094
:10043000014800F009BA000008040020014800F05B
:1004400003BA0000E8020020014800F0FDB90000F6
:10045000A8030020014800F0F7B90000C8040020FC
:10046000014800F0F1B900002805002001681823B8
:10047000CAB2103AB2FBF3F2054B6FF30901032A3B
:100480009B5CC36500D9091D816508467047000063
:100490007C2D000810B5014600208B698A6A4FF058
:1004A000C07453B1B3F5005F15D072B1012A0CD0FE
:1004B000022A0AD0032A09D104E01AB1012A06D07F
:1004C000022A03D1C96AC90100D5012010BDC96A39
:1004D000A142FAD010BD002AF7D0012AF2D0022A98
:1004E000F3D0032AF3D010BD30B50468256825F495
:1004F00080252560046863608368402B036803D00F
:1005000099600068C26030BD9A600068C16030BD0B
:10051000704730B5D1E901231A43D1E903352B43A4
:100520001A434B690C681A438B691A43D1E90735A2
:10053000012C496A046807D01A432A436FF30E045A
:100540000A43224302600AE024F4F8442B43214387
:100550000B43416803606FF30E010A4342600020C1
:1005600030BD426942EA4101416100207047F8B55F
:1005700014460546D1E9000210438A686FF01F0354
:10058000C96803EB421242EA412108430090286106
:1005900000F02AFC064609E0601C07D024B100F0F8
:1005A00023FC801BA04201D90320F8BDA869800666
:1005B000F2D40020F8BD0000F0B56FF00F05D1E9CE
:1005C000003405EB04145B1E23432E018C682F03BB
:1005D00006EB042423434FEA054C0C8A8E8ACD682F
:1005E000097E4FF07F4E07EB04440CEB06560EEBF2
:1005F0000161012A0CD082683F1107EB05352B43BE
:100600002343334302F070420B43134383600FE0F4
:100610008768084A17402A03A2F580523243C5680A
:100620003A43234305F070450B432B438260C3607C
:100630000020F0BDFF0F0FFF78B50024009490F864
:100640003C20012A19D0012280F83C200A680723A7
:100650000568092A13D9EE680A3A02EB4202934070
:100660009E43EE600A788B680A3A02EB420293409E
:100670000268D5682B43D36010E0022078BD2E6954
:1006800002EB420293409E432E610A788B6802EB94
:1006900042029340026815692B4313614A681F2385
:1006A000072A13D205686E6B521E02EB820293403A
:1006B0009E436E630B790A885B1E92B203EB830341
:1006C0009A4003685D6B2A435A6327E005680D2A48
:1006D00012D22E6BD21F02EB820293409E432E63F6
:1006E0000B790A88DB1F92B203EB83039A400368FD
:1006F0001D6B2A431A6311E0EE6A0D3A02EB820287
:1007000093409E43EE620B790A880D3B92B203EB55
:1007100083039A400368DD6A2A43DA62174B05684F
:10072000154A9D4206D10D68122D03D1556845F436
:100730008005556005689D4219D1114D0B68AB428B
:1007400001D0112B13D1536843F40003536009689F
:10075000A9420CD10B490C4A0968B1FBF2F101EB3B
:100760008101490000E0491E00910029FBD180F879
:100770003C40002078BD00000023014000200140E3
:10078000120000102400002040420F0070B5040049
:100790004FF0000503D0206C002610B107E00120C7
:1007A00070BD666484F83C60204600F019F8206C47
:1007B000C00610D4206C20F4885040F00200206461
:1007C0002046FFF78FFD6664206C20F0020040F0A9
:1007D0000100206400E0012584F83C60284670BDDB
:1007E00000B500680C4987B0884213D10B4800213E
:1007F000026842F480620260006800F48060059044
:100800004FF4C06000900320CDE90101694604481F
:1008100000F0FEF907B000BD00220140443802405C
:100820000014024090F83510022903D08021416560
:1008300001207047052180F835100068016821F01B
:1008400001010160002070472DE9F84304464FF094
:100850000009CDF8009063484FF41651A56D00686B
:10086000B0FBF1F72E6894F85C10082000FA01F153
:1008700031420FD021680A6852070BD50A6822F06E
:1008800004020A6094F85C108840A860606D40F033
:100890000100606594F85C104FF0010808FA01F05F
:1008A000304208D021684969090604D5A860606D06
:1008B00040F00200606594F85C10042088403042EB
:1008C00008D021680968890704D5A860606D40F0E8
:1008D0000400606594F85C1010208840304218D005
:1008E00021680968090714D5A860206801684903D0
:1008F00004D50068000308D5A16C07E00168C905AC
:1009000003D4016821F008010160216C09B120467F
:10091000884794F85C1020208840304231D021680C
:100920000968C9062DD5A86094F835000528206807
:10093000016806D0490347D5006800031DD4616CE7
:100940001CE021F0160101602068416921F080015E
:100950004161206C08B9A06C20B12068016821F0C9
:100960000801016094F85C103F208840A86084F87A
:10097000349084F83580216D1FE0E16B09B1204689
:100980008847606D00282BD0606DC00714D005200B
:1009900084F835002068016821F0010101600098A9
:1009A000401C0090B84203D820680068C007F6D108
:1009B00084F8349084F83580E16C002910D001B0BF
:1009C0002046BDE8F04308470168C905D5D4016851
:1009D00021F01001016084F8349084F83580CCE770
:1009E000BDE8F883240000202DE9F041044600F022
:1009F000FBF906465CB1002584F83450022084F8E7
:100A000035002068016821F0010101600DE001203E
:100A1000BDE8F08100F0E8F9801B052805D9202009
:100A20006065032084F83500F2E720680068C0079D
:100A3000F0D12268116820480140D4E9010318432D
:100A4000D4E903363343184363691843A369184351
:100A5000E3691843236A18430843616A042903D1F0
:100A6000D4E90B1319430843106020684069666A93
:100A700020F0070130460E43012704280CD1A06A5C
:100A80000643E06A40B12046FFF704FD20B1402054
:100A9000606584F83570BAE7206846612046FFF744
:100AA000E5FC94F85C203F2191408160656584F805
:100AB00035700020ACE700003F8010F02DE9F041D8
:100AC0000446866D90F83400002501280DD00120E1
:100AD00084F8340094F835700020012F07D084F892
:100AE000340002252846BDE8F0810220FBE70227FA
:100AF00084F8357060652046FFF7F6FC94F85C10CA
:100B00003F208840B0602068016841F01601016014
:100B10002068416941F080014161206C20B120686A
:100B2000016841F0080101602068016841F001019D
:100B30000160D7E770B5044600F056F90546601C21
:100B400002D004480078044400F04EF9401BA04253
:100B5000FAD370BD18000020F0B5264887B00168B0
:100B6000002944D10121016023480024016841F09B
:100B7000010101600068022500F0010005904FF6B8
:100B80003F00CDE9000502AA03260C2782E8D00029
:100B900069461A4800F03CF80D20CDE9000502AA8C
:100BA000694682E8D000164800F032F848F2331067
:100BB000CDE9000502AA694682E8D000114800F09C
:100BC00027F84FF68370CDE9000502AA694682E84E
:100BD000D0000D4800F01CF84CF20370CDE9000580
:100BE00002AA694682E8D000084800F011F807B070
:100BF000F0BD000010000020383802400014024010
:100C0000000802400018024000100240000C0240A0
:100C10002DE9F84FDFF890B100224FF001084FF0B6
:100C2000030A4FF00F090BF1040E00BF0B6808FA1E
:100C300002F42340A3426ED14D68022D01D0122D43
:100C40000ED1D50800EB850CDCF820505607F70EC6
:100C500009FA07F6B5430E69BE402E43CCF8206072
:100C6000066855000F790AFA05FC07F0030726EA23
:100C70000C06AF40374307604E68012E05D0022EA8
:100C800003D0112E01D0122E0ED18768CE6827EA2C
:100C90000C07AE403E4386604668A6430C79C4F319
:100CA0000014944034434460C4688E6824EA0C0401
:100CB000AE402643C6604C68E4006FD53B4C2568C7
:100CC00045F480452560246822F0030504F480443F
:100CD0000094374C2E19D6F8084895072F0F09FABB
:100CE00007F5AC43334DA84201D100252EE0324D2B
:100CF000A84201D1012529E0304DA84201D10225A9
:100D000024E02F4DA84201D103251FE02D4DA8421C
:100D100002D104251AE041E02B4DA84201D105255E
:100D200014E02A4DA84201D106250FE0284DA84223
:100D300001D107250AE0274DA84201D1082505E089
:100D4000254DA84201D1092500E00A25BD402543D3
:100D5000C6F80858DBF800405D464E689C43F60331
:100D600000D51C432C60DEF8004075464E689C435D
:100D7000B60300D51C432C600B4D08352C684E681B
:100D80009C43F60200D51C432C60074D0C352C68A3
:100D90004E689C43B60200D51C432C60521C102A9E
:100DA000FFF444AFBDE8F88F003C014044380240F6
:100DB00000300140000002400004024000080240F0
:100DC000000C0240001002400014024000180240D3
:100DD000001C024000200240002402400AB1816150
:100DE00070470904FBE70000014880687047000075
:100DF0001800002002488168027811448160704721
:100E0000180000200B4810B5016841F40071016022
:100E1000016841F480610160016841F48071016002
:100E2000032000F097F8002000F006F800F024F806
:100E3000002010BD003C024070B50D4D04464FF43B
:100E40007A712878B1FBF0F00A490968B1FBF0F03B
:100E500000F0A1FB48B9102C07D200222146501EF9
:100E600000F058F800206C6070BD012070BD0000DB
:100E700018000020240000201F4808B5016841F434
:100E800080410160006800F4804000901A48001F13
:100E9000016841F080510160006800F080500090CE
:100EA000032000F057F8002211466FF00B0000F00D
:100EB00031F8002211466FF00A0000F02BF80022F2
:100EC00011466FF0090000F025F800221146501F6E
:100ED00000F020F800221146101F00F01BF800223D
:100EE0001146901E00F016F80022BDE80840114699
:100EF000501E00F00FB800004438024000F01F02FE
:100F0000012191404009800000F1E020C0F800116B
:100F100070470000F0B40E4B1B680C46C3F302236D
:100F2000C3F10705042D00D90425191D072901D295
:100F3000002300E0DB1E012606FA05F1491E2140D0
:100F400099409E40761E16403143F0BC01F02AB90C
:100F50000CED00E0064900F0070208684FF6FF03B9
:100F6000184040EA0220034A10430860704700001E
:100F70000CED00E00000FA052DE9F8431748016880
:100F800041F0805101600068154F00F0805001264B
:100F900000903E64FFF728FF05464FF47A78114C25
:100FA00005E000BFFFF720FF401B40450DD86068FB
:100FB000C003F7D57E64FFF717FF0546464607E0F6
:100FC000FFF712FF401BB04202D90320BDE8F883AF
:100FD00060688003F4D50020F8E700004038024044
:100FE00000000E42007000402DE9F0470E4605005B
:100FF00065D0DFF81481D8F80000F7B200F00F00D8
:10100000B04207D288F80070D8F8000000F00F0056
:10101000B04254D128683D4C810712D5400703D512
:10102000206840F4E05020602878000703D520684D
:1010300040F4604020602068A96820F0F000084378
:1010400020602878C0072DD0304968680839012809
:1010500012D0022813D0032811D00968890700296B
:101060002DDA216821F0030101432160FFF7BCFE66
:10107000814641F2883A0EE009688903EFE7096882
:101080008901ECE7FFF7B0FEA0EB0901514502D959
:101090000320BDE8F0872068696800F00C00B0EB21
:1010A000810FEFD1D8F80010404601F00F01B14296
:1010B00007D90770006800F00F00B04201D001208E
:1010C000E7E72878400705D52068E96820F4E05074
:1010D000084320602878000706D52068296920F495
:1010E000604040EAC100206000F03CF82168084AF6
:1010F000C1F30311515CC840064908600020FFF7A6
:101100009BFE0020C5E70000003C0240083802407A
:10111000842D00082400002001480068704700006A
:10112000240000200448054900680968044AC1F306
:101130008221515CC84070472400002008380240DA
:10114000942D00080448054900680968044AC1F361
:101150004231515CC84070472400002008380240EA
:10116000942D0008154810B5006810F00C021448C2
:1011700013D01449042A0FD0082A0ED10F4C241F73
:101180002268236802F03F025B0207D52068C0F3A3
:101190008810A0FB010106E0084610BD2168C1F3DC
:1011A0008811A1FB00010023FFF71CF82168C1F39F
:1011B0000141491C4900B0FBF1F010BD0838024064
:1011C0000024F40000366E012DE9F84F050076D0BA
:1011D0002878DFF8F8B2BE4CC00749D0DBF8001021
:1011E0005846C1F38101012908D00068C0F381008D
:1011F00002280AD1201D0068400206D5206880031D
:1012000036D568680028E2D032E06868B0F5803FE3
:1012100010D0B0F5A02F206810D020F480302060CE
:10122000206820F4802020606868A0B1FFF7DCFD12
:1012300006460CE0206840F48030F4E740F480205B
:101240002060F7E7FFF7D0FD801B642873D8206883
:101250008003F7D50CE0FFF7C7FD064605E000BFA9
:10126000FFF7C2FD801B6428F0D820688003F7D404
:101270002878DFF8608280074FF000093ED5DBF860
:101280000010584611F00C0F09D00068C0F381001F
:1012900002280BD18D48001F0068400206D4206848
:1012A000800715D5E868012809D111E0E868B8B1D0
:1012B0000120C8F80000FFF797FD064605E002E1AF
:1012C000FFF792FD801B0228C0D820688007F7D561
:1012D0002068296920F0F80040EAC10020600DE094
:1012E000C8F80090FFF780FD064604E0FFF77CFD9C
:1012F000801B02281FD820688007F7D428780007B1
:1013000022D5724E744869696C3671B10121016051
:10131000FFF76AFD074604E0FFF766FDC01B0228E1
:1013200009D830688007F7D50EE0C0F80090FFF7C5
:101330005BFD074605E083E0FFF756FDC01B022872
:101340007ED830688007F7D42878400768D5DFF862
:101350007CA100270AF1380ADAF80000C0000BD49B
:10136000DAF8001041F08051CAF80010DAF80000F5
:10137000012700F080500090584E3068C00510D40E
:10138000306840F480703060FFF72EFD009005E07B
:10139000FFF72AFD0099401A022851D83068C0058D
:1013A000F6D54A4EA868683601280FD0052830685F
:1013B00010D020F001003060306820F00400306070
:1013C000A868B8B1FFF710FD00900FE0306840F05A
:1013D0000100F4E740F004003060F7E7FFF704FD98
:1013E0000099411A41F28830814264D83068800700
:1013F000F4D50EE0FFF7F8FC009007E0FFF7F4FCEF
:101400000099411A41F28830814254D830688007EF
:10141000F4D42FB1DAF8001021F08051CAF800108E
:10142000A869C0B3DBF80010C1F3810102294AD0DA
:101430000228484607D0C8F86000FFF7D5FC00E056
:1014400039E005463AE04746C8F86000FFF7CCFCB3
:10145000064604E0FFF7C8FC801B02282BD8206852
:101460008001F7D4D5E907010843A96A1C4A490855
:1014700002EB01416A6A41EA8211084395F82C1097
:1014800040EA01611148001F016001203866FFF742
:10149000ABFC054605E014E0FFF7A6FC401B022864
:1014A00009D820688001F7D50BE000BFFFF79CFC4E
:1014B000401B022802D90320BDE8F88F2068800174
:1014C000F4D40020F8E70120F6E7000008380240D5
:1014D0000038024000004742800E47420070004042
:1014E0000000FFFF70B50D46040003D094F82C00F7
:1014F00010B107E0012070BD002084F82D002046C7
:1015000000F011F8022084F82C00211D2068FFF75C
:1015100000F8D4E900022946FFF74EF8012084F8CC
:101520002C00002070BDFFF717BB10B5044690F8E3
:101530002C00022809D0022084F82C002068FFF734
:1015400010F8012084F82C00002010BD70B504466E
:1015500090F82C000D4602280DD0022084F82C00B3
:101560002068FFF704F82868022805D05FF0010022
:1015700084F82C00002070BD0520F9E74FF0E02131
:101580000428086903D020F004000861704740F087
:101590000400FAE7704710B5401EB0F1807F01D318
:1015A000012010BD4FF0E02460610F21601700F0B2
:1015B000F9FD0020A06107202061002010BD10B5BA
:1015C000FFF7E8FF10BD704770B502680446106869
:1015D000D168536910F00F0F50D003F0010501F4EA
:1015E000907635435DD0C20705D0CA0503D5E26BBE
:1015F00042F00102E263420705D5DA0703D0E26B4D
:1016000042F00202E263820705D5DA0703D0E26BFB
:1016100042F00402E263020705D5DA0703D0E26B69
:1016200042F00802E263E26B002A33D0800604D560
:10163000880602D5204600F0DCFE20684069E16B98
:10164000C0F38010090700D428B3204600F0BAFE8A
:101650002068416949061AD5416921F0400141617C
:10166000606BA0B11B490165606BFFF7DBF80028D8
:1016700010D0606B016DBDE870400847830610D53F
:101680008B060ED52046BDE8704000F0B2BE204665
:10169000FFF799FF70BD2046FFF795FF0020E0633C
:1016A00070BD030606D50B0604D52046BDE8704084
:1016B00001F03CB84006F3D54806F1D5D168204684
:1016C00021F04001D160202184F8391000F0FCFAAB
:1016D00070BD0000ED22000870B5040004D094F83D
:1016E0003900002510B106E0012070BD84F83850A3
:1016F000204600F023F8242084F839002068C168CF
:1017000021F40051C160204600F0BAFE2068016952
:1017100021F4904101612068416921F02A01416171
:101720002068C16841F40051C160E563202084F85D
:10173000390084F83A00002070BD00002DE9F04F18
:101740000446D0F800C0D648DFF8508303210222B7
:10175000012308270025061587B04FF040094FF0F8
:10176000006A4FF4803BC4454AD1D0F800C04CF425
:10177000002CC0F800C0006800F4002005908DE83F
:101780000E00CDE903176946C648FFF741FAC74F77
:10179000C548B0463860C7E901A5C7E903568015BA
:1017A0007D61C7E90650C7E908B55E463846FFF7D0
:1017B0001BF918B1D621BEA001F02FF86763BC63F6
:1017C000BA4FB94860373030C7F80890C7E90358B6
:1017D0007D61BD61C7E907567D62C7E9000A3846E9
:1017E000FFF702F918B1E821B1A001F016F827635C
:1017F000002211463420BC63FFF78CFB342066E0E6
:10180000DFF8BC82C44567D1D0F800C0A8464CF4CC
:10181000801CC0F800C00068694600F48010059084
:101820004FF480500090022001900120029003208C
:10183000CDE90307A348FFF7EBF90420009002204D
:101840000190012002900320CDE9030769469E48DC
:10185000FFF7DEF995489449C03030390160C0E99E
:1018600001A5C0E9035645618561C0E9075B5F4694
:101870004562FFF7B9F820B14FF48E718CA000F0EB
:10188000CCFF8A48914DC030606384638648C5F8B8
:1018900008907830C5E9000AC5E90386C5F81480C8
:1018A000C5F81880C5E907872846C5F82480FFF7E2
:1018B0009BF820B14FF497717DA000F0AEFF256337
:1018C000002211463520AC63FFF724FB3520FFF7DB
:1018D00015FB07B0BDE8F08FDFF8F481C44512D1E5
:1018E000046844F0804404600068CDE9023100F0EF
:1018F00080400590C020CDE90002049769467548F4
:10190000FFF786F9E5E7DFF8D081DFF894E1C44519
:101910000EF1040E1CD1DEF8004044F01004CEF8A5
:101920000040DEF8000000F0100005904FF4C060A9
:101930008DE80D000720CDE9031069465948FFF7EF
:1019400067F9002211462520FFF7E4FA2520BEE7BB
:10195000DFF88881C44554D10768A84647F480273A
:101960000760006800F4802005904FF440608DE827
:101970000D000720CDE9031069465948FFF748F9E3
:101980005248494960301831C0E9035645618561C4
:10199000C0E9075B5746456280E88202FFF724F8FA
:1019A00020B14FF4C67142A000F037FF4748474DC1
:1019B0006030206384633C48C0351838C5E90007AF
:1019C000C5F80880C5E9038605F1180240464FF4C2
:1019D0008071C5F8148082E803082846C5F8248081
:1019E000FFF702F820B14FF4CF7131A000F015FFDE
:1019F0006563002211462720AC63FFF78BFA27208E
:101A000065E7384884457FF47DAFDEF800C04CF0D0
:101A1000200CCEF800C0DEF80000CDE9023100F065
:101A200020000590C020CDE90002049769462548B2
:101A3000FFF7EEF82D4F2C484FF020683860C7E9CB
:101A40000185C7E9035680157D61C7E906503D62EF
:101A500038467D62FEF7C8FF20B140F2CB1114A0DA
:101A600000F0DBFE6763BC63204F1F4860377830AF
:101A7000C7E903567D61BD61FD613D627D6287E816
:101A800001033846FEF7B0FF20B140F2DD1108A097
:101A900000F0C3FE2763BC631BE70000004C00405E
:101AA00040380240000002404060024088020020AE
:101AB0002E2E2F5372632F75736172742E63000084
:101AC0000050004000080240000C0240A803002023
:101AD000007800400014024000100140004800401F
:101AE000000402400014014028640240C8040020A1
:101AF000F8B5044690F83A0020283CD1C1B3BAB3F7
:101B000094F83800012836D0012084F83800A1620A
:101B1000A2850025E563222084F83A00636B17480C
:101B2000D863636B16481864636B1648D864606B9F
:101B3000134605650846666B216802463046091D56
:101B4000FEF7BCFF206801684168009184F83850B6
:101B5000C16841F48071C1602068416941F00101B0
:101B600041612068416941F0400141610020F8BDB8
:101B7000FFE70120FBE70220F9E700004723000808
:101B800083230008FD220008704770472DE9F843C1
:101B9000044690F839001F4616460D46202850D1BD
:101BA000A5B19EB194F8380001284AD0012084F8EC
:101BB00038004FF00008C4F83C80212084F8390038
:101BC000FFF712F9A6848146E68426E00120BDE8ED
:101BD000F883E08C401EE084A0684B46B0F5805F3F
:101BE0004FF000024FF080012046009703D000F034
:101BF000CEFDE8B90DE000F0CAFDC8B9288821681B
:101C0000C0F308004860206908B16D1C05E0AD1CF8
:101C100003E0216815F8010B4860E08C0028D8D15A
:101C20004B46002240212046009700F0B0FD08B14D
:101C30000320CCE7202084F8390084F83880002085
:101C4000C5E70220C3E7000070B5044690F83900EC
:101C5000202830D169B362B394F8380001282AD023
:101C6000012084F838002162A284E2840025E56323
:101C7000212084F83900236B1048D863236B104867
:101C80001864236B0F48D864206B134605652668DB
:101C9000206B321DFEF712FF21686FF040000860D4
:101CA00084F838502068416941F08001416100208A
:101CB00070BD012070BD022070BD00008D230008A2
:101CC000BB230008FD22000870477047FEE70000B4
:101CD0007FB515481349002401604FF48031C0E9F5
:101CE00001140461846111490462C0E90A140125E8
:101CF000C460C56145610463FEF748FD18B1482121
:101D00000BA000F08AFD0720CDE90005694602948A
:101D10000548FEF791FC002803D0522104A000F0F2
:101D20007CFD7FBD002201408C0000200100000FDF
:101D30002E2E2F5372632F6164632E630000000008
:101D4000214808B5016841F400110160016801F4FF
:101D500000110091016841F48001016000680022D7
:101D600000F48000009011460B20FFF7D3F80B2001
:101D7000FFF7C4F8002211460C20FFF7CBF80C2027
:101D8000FFF7BCF8002211460D20FFF7C3F80D2025
:101D9000FFF7B4F8002211460E20FFF7BBF80E2023
:101DA000FFF7ACF8002211460F20FFF7B3F80F2021
:101DB000FFF7A4F8002211462F20FFF7ABF8BDE88B
:101DC00008402F20FFF79AB83038024000B5164877
:101DD00087B014490160002100F1080C042210238F
:101DE00041608CE80E00402343619301C0E9063155
:101DF0005302C0E908318162022007218DE8070003
:101E00000391032104910521CDE905106946064897
:101E1000FFF768FB002803D0AB2104A000F0FDFC15
:101E200007B000BD400100A0D40000202E2E2F538B
:101E300072632F666D632E63000000002DE9F04F82
:101E40005D4887B00024016841F480710160016839
:101E500001F480710591016841F00401016001689D
:101E600001F004010591016841F020010160016861
:101E700001F020010591016841F0800101600168D5
:101E800001F080010591016841F0010101600168E4
:101E900001F001010591016841F040010160016814
:101EA00001F040010591016841F0100101600168F5
:101EB00001F010010591016841F002010160016823
:101EC00001F002010591016841F00801016000681C
:101ED000DFF8E8A000F0080040F608750590002241
:101EE00029465046FEF77AFFDFF8D4B042F20206E8
:101EF000002231465846FEF771FF7711002239461D
:101F00003048FEF76BFF00223C212F48FEF766FFAA
:101F10004FF48878002241462C48FEF75FFF0022EC
:101F200098212B48FEF75AFF4FF44079002249468A
:101F30002848FEF753FF00950125CDE90154694675
:101F400050460394FEF764FE0096CDE901546946BD
:101F500058460394FEF75CFE0097CDE901546946AC
:101F600018480394FEF754FE3C200090CDE901543C
:101F7000694615480394FEF74BFECDF80080CDE985
:101F80000154694611480394FEF742FE98200090E0
:101F9000CDE9015469460E480394FEF739FECDF8A9
:101FA0000090CDE9015469460A480394FEF730FEDB
:101FB00007B0BDE8F08F000030380240002002403A
:101FC0000008024000140240001C024000000240D1
:101FD000000C0240000402400D4810B50B4901609E
:101FE0004FF4E1314160002181600C22C160C0E901
:101FF00004128161C161FFF76FFB002805D0BDE8C5
:1020000010404F2103A000F008BC10BD004C004060
:10201000080100202E2E2F5372632F757361727486
:102020002E6300000D4810B50B4901604FF4E131FB
:102030004160002181600C22C160C0E9041281610D
:10204000C161FFF749FB002805D0BDE810406121C0
:1020500003A000F0E2BB10BD00500040480100208A
:102060002E2E2F5372632F75736172742E630000CE
:102070000D4810B50B4901604FF4E131416000217A
:1020800081600C22C160C0E904128161C161FFF767
:1020900023FB002805D0BDE81040732103A000F009
:1020A000BCBB10BD00780040880100202E2E2F53AD
:1020B00072632F75736172742E6300000D4810B542
:1020C0000B4901604FF4E1314160002181600C2235
:1020D000C160C0E904128161C161FFF7FDFA002807
:1020E00005D0BDE81040862103A000F096BB10BDCE
:1020F00000100140C80100202E2E2F5372632F754F
:10210000736172742E6300000D4810B50B490160B5
:102110004FF4E1314160002181600C22C160C0E9CF
:1021200004128161C161FFF7D7FA002805D0BDE82C
:102130001040992103A000F070BB10BD0048004082
:10214000080200202E2E2F5372632F757361727454
:102150002E6300000D4810B50B4901604FF4E131CA
:102160004160002181600C22C160C0E904128161DC
:10217000C161FFF7B1FA002805D0BDE81040AC21DD
:1021800003A000F04ABB10BD00140140480200202B
:102190002E2E2F5372632F75736172742E6300009D
:1021A000FEE770470907090E002806DA00F00F0065
:1021B00000F1E02080F8141D704700F1E02080F865
:1021C000001470477047704710B5FEF713FEBDE866
:1021D0001040FFF7F4B9000030B5274893B0002550
:1021E000016841F080510160006800F0805011905A
:1021F0002248016841F4404101600068022400F473
:102200004040119001200090000401908001CDE930
:102210000640182008904FF4B470CDE9090404205A
:102220000B906846FEF7D0FF00B1FEE7FEF7A4FE74
:1022300000B1FEE70CA90F2081E831004FF4A05057
:102240000F904FF48050109005210CA8FEF7CCFEA3
:1022500000B1FEE7FEF760FF4FF47A71B0FBF1F0DA
:10226000FFF799F90420FFF789F900221146501E63
:10227000FEF750FE13B030BD403802400070004001
:102280001048016841F4700101600F48016841F095
:10229000010101600C4A00210832116002680B4BF9
:1022A0001A400260031D0A4A1A60026822F4802262
:1022B000026005480C300160024958068039086008
:1022C0007047000088ED00E000380240FFFFF6FE96
:1022D000103000240148FFF777B900000801002002
:1022E0000148FFF771B900004801002010B5806B6C
:1022F0000021C185C184FFF766F910BD70B5846BFC
:102300002068406994F83910C0F3C01000252129D5
:1023100004D118B1E584204600F062F820684069D5
:1023200094F83A10C0F38010222904D118B1E58541
:10233000204600F047F8E06B40F01000E0632046D4
:10234000FFF741F970BD10B50146806B0968096857
:10235000C90513D40021C1850168CA6822F48072BE
:10236000CA6001684A6922F001024A6101684A694B
:1023700022F040024A61202180F83A10FFF704FC65
:1023800010BD10B5806BFFF700FC10BD10B5014605
:10239000806B09680968C9050CD40021C1840168F3
:1023A0004A6922F080024A610068C16841F0400138
:1023B000C16010BDFFF788FC10BD10B5806BFFF742
:1023C00084FC10BD0168CA6822F49072CA6001687A
:1023D0004A6922F001024A61202180F83A107047D0
:1023E0000168CA6822F0C002CA60202180F8391052
:1023F000704710B590F83A10222901D0022010BD84
:102400008168B1F5805F11D00169002901681FD092
:10241000496801F07F03816A4A1C82620B70C18D9A
:10242000491E0904090CC18518D026E00269816A99
:10243000002A0268526805D0D2B20A80816A491C1B
:102440008162ECE7C2F308020A80816A891CF7E71F
:102450004A68816A4B1C83620A70E0E70168CA68B7
:1024600022F49072CA6001684A6922F001024A614E
:10247000202180F83A10FFF787FB002010BD0000F4
:102480002DE9F04104460068016921F44052E168F9
:10249000114301612168C86849F20C6290432369C5
:1024A000A268E5691A4363692B431A430243CA6071
:1024B0002168486920F44072A06910434861E169CD
:1024C0006425B1F5004F9748974A21684FF03208CC
:1024D0003FD0914201D081427CD1FEF733FE00EB28
:1024E000C00101EB001061688900B0FBF1F6FEF756
:1024F00029FE00EBC00101EB001061688900B0FB10
:10250000F1F0B0FBF5F06FF01801484306EB8001E5
:1025100008EB0110B0FBF5F000F0F006FEF712FE3C
:1025200000EBC00101EB001061688900B0FBF1F025
:10253000B0FBF5F006EB0016FEF704FE00EBC00161
:1025400001EB001061688900B0FBF1F7FEF7FAFDBE
:10255000D2E0914201D081423DD1FEF7F3FD00EB84
:10256000C00101EB001061684900B0FBF1F0B0FB65
:10257000F5F00601FEF7E6FD00EBC00101EB0010EF
:1025800061684900B0FBF1F7FEF7DCFD00EBC0012C
:1025900001EB001061684900B0FBF1F0B0FBF5F011
:1025A0006FF01801484307EB800108EBC100B0FB56
:1025B000F5F000F0F80006EB4006FEF7C3FD00EB77
:1025C000C00101EB001061684900B0FBF1F7FEF7B4
:1025D000B9FD3CE055E0FEF7A5FD00EBC00101EBC5
:1025E000001061684900B0FBF1F0B0FBF5F00601A6
:1025F000FEF798FD00EBC00101EB00106168490097
:10260000B0FBF1F7FEF78EFD00EBC00101EB00100F
:1026100061684900B0FBF1F0B0FBF5F06FF0180114
:10262000484307EB800108EBC100B0FBF5F000F078
:10263000F80006EB4006FEF775FD00EBC00101EB6C
:10264000001061684900B0FBF1F7FEF76BFD00EB8D
:10265000C00101EB001061684900B0FBF1F0B0FB74
:10266000F5F06FF01801484307EB800108EBC1005B
:10267000B0FBF5F000F00700216830448860BDE849
:10268000F081FEF74FFD00EBC00101EB0010616827
:102690008900B0FBF1F6FEF745FD00EBC00101EB50
:1026A000001061688900B0FBF1F0B0FBF5F06FF04D
:1026B0001801484306EB800108EB0110B0FBF5F070
:1026C00000F0F006FEF72EFD00EBC00101EB00105C
:1026D00061688900B0FBF1F0B0FBF5F006EB001685
:1026E000FEF720FD00EBC00101EB001061688900DE
:1026F000B0FBF1F7FEF716FD00EBC00101EB001097
:1027000061688900B0FBF1F0B0FBF5F06FF01801E3
:10271000484307EB800108EB0110B0FBF5F000F037
:102720000F00A9E7001401400010014090F8391093
:10273000212901D0022070478168B1F5805F016ACC
:102740000BD04A1C0262026809785160C18C491E94
:102750000904090CC1840ED017E009880268C1F38E
:102760000801516001690029016A02D0491C016217
:10277000ECE7891CFBE70168CA6822F08002CA60A6
:102780000068C16841F04001C160002070472DE938
:10279000F041984617460E460446069D1DE0681C0B
:1027A0001BD02DB1FEF720FBA0EB0800A84214D9E6
:1027B0002068C16821F4D071C1602068416921F0AE
:1027C00001014161202084F8390084F83A0000209A
:1027D00084F838000320BDE8F0812068006836EAFC
:1027E000000004D00020B842D9D00020F3E7012037
:1027F000F9E700000148FEF7E7BE0000C80100202D
:102800000148FEF7E1BE0000080200200148FEF783
:10281000DBBE000048020020FEE7FEE70FB4084BD5
:1028200010B504A902AA039800F01CF8044602A9F6
:10283000002000F0B8F9204610BC5DF814FB000041
:10284000A72B000802E008C8121F08C1002AFAD10D
:1028500070477047002001E001C1121F002AFBD120
:10286000704700002DE9FF4F8BB0884605460026D3
:1028700006E025280BD0DDE90D1290476D1C761C73
:1028800028780028F5D10FB03046BDE8F08F00243D
:10289000A146A2460122AE4900E0044315F8013FDB
:1028A000203B02FA03F00842F7D128782A2810D0FA
:1028B0006FF02F022878A0F13001092915D809EB13
:1028C000890102EB410144F0020400EB01096D1C97
:1028D000F0E758F8041B5FEA010903D544F40054FB
:1028E000C9F1000944F002046D1C28782E2817D184
:1028F00015F8010F44F004042A280ED06FF02F02BF
:102900002878A0F1300109290AD80AEB8A0102EBE4
:10291000410100EB010A6D1CF2E758F804AB6D1C95
:1029200028786C280FD006DC4C2817D068280DD0EA
:102930006A2814D104E0742810D07A280FD10DE051
:1029400044F400140AE044F4801401E044F4401418
:102950006978814202D104F580146D1C6D1C2878C1
:10296000692865D006DC00288DD0632827D064282C
:1029700006D15DE06E2808D073282AD0752877D05C
:10298000DDE90D129047761CE0E0C4F30250022806
:1029900009D003280DD0D8F8001004280DD00E60FF
:1029A00008F10408D2E0D8F80010F217C1E900627B
:1029B000F6E7D8F800100E80F2E70E70F0E718F88E
:1029C000041B8DF8001000208DF80100EB4601205B
:1029D00003E058F804BB4FF0FF3061074FF00007E9
:1029E00001D40AE07F1C57450DDA8742FADB1BF859
:1029F00007100029F6D106E07F1C8742FCDB1BF89C
:102A000007100029F8D1DDE90D23A9EB0700814665
:102A1000214600F0B1F83044C61904E0DDE90D129A
:102A20001BF8010B90477F1EF8D22146484688E0EC
:102A300058F8040BC4F302514FF00A0B032900D1DC
:102A400000B2042900D140B2002802DA40422D2110
:102A500002E0210505D52B218DF82410012104E089
:102A600006E0E10710D02021F6E708AF089113E057
:102A700058F8040BC4F302514FF00A0B032900D19C
:102A800080B2042900D1C0B20021EEE75946FDF71B
:102A9000E1FB303107F8011D0028F7D1ADEB07004D
:102AA00000F1200B600702D524F4803401E04FF0E0
:102AB000010ADA4502DDAAEB0B0000E000208246A5
:102AC00000EB0B0108980144A9EB01000A90E00318
:102AD00006D4DDE90D2321460A9800F04DF806449E
:102AE0004FF0000908E009A911F80900DDE90D120D
:102AF000904709F10109761C08998945F3DBE00349
:102B00000CD5DDE90D2321460A9800F035F806447E
:102B100004E0DDE90D1230209047761CBAF1000187
:102B2000AAF1010AF5DC05E0DDE90D1217F8010B49
:102B30009047761CBBF10001ABF1010BF4DC0A9865
:102B40002146DDE90D2300F005F806446D1C97E6EB
:102B5000092801002DE9F041044600251E461746CC
:102B6000880404D405E039462020B0476D1C641E5B
:102B7000F9D52846BDE8F0812DE9F041044600254D
:102B80001E469046C80301D5302700E02027880460
:102B900004D505E041463846B0476D1C641EF9D5A2
:102BA0002846BDE8F0810A68531C0B60107070471E
:102BB0000EB5FEF727F9FFF70FFBFFF73FF9FFF719
:102BC000BFF8FFF7A1FAFFF779FAFFF705FAFFF769
:102BD0007FF8FFF727FAFFF74BFAFFF7BBFAFFF78B
:102BE000F5F8002211464720FEF794F94720FEF73A
:102BF00085F9002211463920FEF78CF93920FEF7BD
:102C00007DF9002211464520FEF784F94520FEF7A4
:102C100075F9274D012251022846FEF7DFF80122FF
:102C2000140221462846FEF7D9F8224D0122082138
:102C30002846FEF7D3F8012210212846FEF7CEF8E9
:102C4000012280212846FEF7C9F8012208211A48EE
:102C5000FEF7C4F8012221461848FEF7BFF818A273
:102C600007CA8DE807006846FDF7EDFA82B20A232D
:102C700069461648FEF78AFF0A2215491548FEF7ED
:102C800037FF154800F038F809262C054FF47A75FF
:102C90003246267011A11748FFF7C0FDC2B2154990
:102CA0000A48FEF7D1FF2846FDF744FFF0E7000091
:102CB00000040240000C02400020024000000240DC
:102CC000696E69742E2E2E0D0A0000004801002046
:102CD0002800002008020020D40000202D2D2D7493
:102CE0006573745F313D2025642D2D2D2D2D2D2DE7
:102CF0002D0D0A00000000202DE9FF4701261025B8
:102D000000240096CDE9015442F2107881464246F3
:102D100069460394FEF71AFC60BB0A20FDF70AFF20
:102D200002270097CDE9015442466946484603947C
:102D3000FEF70CFCF0B90320CDE90274CDE90005E3
:102D40004446424669464846FEF700FC90B940F2C8
:102D50002220039004218DE86200224669464846FD
:102D6000FEF7F4FB30B940F2AB214846FEF7DDFB3D
:102D7000002800D0FF2004B0BDE8F0870006101640
:102D8000000610160000000000000000010203040D
:102D9000060708090000000001020304BC2D00081A
:102DA000000000202800000044280008E42D00084E
:102DB00028000020601700005428000868656C6C2B
:102DC0006F2E2E2E0D0A00000000000000000000F3
:102DD00000000000010000001000000000000000E2
:042DE0000024F400D7
:04000005080001AD41
:00000001FF
